{
  "contractName": "VestingVault12",
  "abi": [
    {
      "constant": true,
      "inputs": [
        {
          "name": "",
          "type": "uint256"
        }
      ],
      "name": "tokenGrants",
      "outputs": [
        {
          "name": "startTime",
          "type": "uint256"
        },
        {
          "name": "amount",
          "type": "uint256"
        },
        {
          "name": "vestingDuration",
          "type": "uint16"
        },
        {
          "name": "vestingCliff",
          "type": "uint16"
        },
        {
          "name": "daysClaimed",
          "type": "uint16"
        },
        {
          "name": "totalClaimed",
          "type": "uint256"
        },
        {
          "name": "recipient",
          "type": "address"
        }
      ],
      "payable": false,
      "stateMutability": "view",
      "type": "function"
    },
    {
      "constant": true,
      "inputs": [],
      "name": "owner",
      "outputs": [
        {
          "name": "",
          "type": "address"
        }
      ],
      "payable": false,
      "stateMutability": "view",
      "type": "function"
    },
    {
      "constant": true,
      "inputs": [],
      "name": "totalVestingCount",
      "outputs": [
        {
          "name": "",
          "type": "uint256"
        }
      ],
      "payable": false,
      "stateMutability": "view",
      "type": "function"
    },
    {
      "constant": true,
      "inputs": [],
      "name": "token",
      "outputs": [
        {
          "name": "",
          "type": "address"
        }
      ],
      "payable": false,
      "stateMutability": "view",
      "type": "function"
    },
    {
      "inputs": [
        {
          "name": "_token",
          "type": "address"
        }
      ],
      "payable": false,
      "stateMutability": "nonpayable",
      "type": "constructor"
    },
    {
      "anonymous": false,
      "inputs": [
        {
          "indexed": true,
          "name": "recipient",
          "type": "address"
        },
        {
          "indexed": false,
          "name": "vestingId",
          "type": "uint256"
        }
      ],
      "name": "GrantAdded",
      "type": "event"
    },
    {
      "anonymous": false,
      "inputs": [
        {
          "indexed": true,
          "name": "recipient",
          "type": "address"
        },
        {
          "indexed": false,
          "name": "amountClaimed",
          "type": "uint256"
        }
      ],
      "name": "GrantTokensClaimed",
      "type": "event"
    },
    {
      "anonymous": false,
      "inputs": [
        {
          "indexed": false,
          "name": "recipient",
          "type": "address"
        },
        {
          "indexed": false,
          "name": "amountVested",
          "type": "uint256"
        },
        {
          "indexed": false,
          "name": "amountNotVested",
          "type": "uint256"
        }
      ],
      "name": "GrantRemoved",
      "type": "event"
    },
    {
      "anonymous": false,
      "inputs": [
        {
          "indexed": false,
          "name": "owner",
          "type": "address"
        }
      ],
      "name": "ChangedOwner",
      "type": "event"
    },
    {
      "constant": false,
      "inputs": [
        {
          "name": "_recipient",
          "type": "address"
        },
        {
          "name": "_startTime",
          "type": "uint256"
        },
        {
          "name": "_amount",
          "type": "uint256"
        },
        {
          "name": "_vestingDurationInDays",
          "type": "uint16"
        },
        {
          "name": "_vestingCliffInDays",
          "type": "uint16"
        }
      ],
      "name": "addTokenGrant",
      "outputs": [],
      "payable": false,
      "stateMutability": "nonpayable",
      "type": "function"
    },
    {
      "constant": true,
      "inputs": [
        {
          "name": "_recipient",
          "type": "address"
        }
      ],
      "name": "getActiveGrants",
      "outputs": [
        {
          "name": "",
          "type": "uint256[]"
        }
      ],
      "payable": false,
      "stateMutability": "view",
      "type": "function"
    },
    {
      "constant": true,
      "inputs": [
        {
          "name": "_grantId",
          "type": "uint256"
        }
      ],
      "name": "calculateGrantClaim",
      "outputs": [
        {
          "name": "",
          "type": "uint16"
        },
        {
          "name": "",
          "type": "uint256"
        }
      ],
      "payable": false,
      "stateMutability": "view",
      "type": "function"
    },
    {
      "constant": false,
      "inputs": [
        {
          "name": "_grantId",
          "type": "uint256"
        }
      ],
      "name": "claimVestedTokens",
      "outputs": [],
      "payable": false,
      "stateMutability": "nonpayable",
      "type": "function"
    },
    {
      "constant": false,
      "inputs": [
        {
          "name": "_grantId",
          "type": "uint256"
        }
      ],
      "name": "removeTokenGrant",
      "outputs": [],
      "payable": false,
      "stateMutability": "nonpayable",
      "type": "function"
    },
    {
      "constant": true,
      "inputs": [
        {
          "name": "_grantId",
          "type": "uint256"
        }
      ],
      "name": "tokensVestedPerDay",
      "outputs": [
        {
          "name": "",
          "type": "uint256"
        }
      ],
      "payable": false,
      "stateMutability": "view",
      "type": "function"
    },
    {
      "constant": false,
      "inputs": [
        {
          "name": "_newOwner",
          "type": "address"
        }
      ],
      "name": "changeOwner",
      "outputs": [],
      "payable": false,
      "stateMutability": "nonpayable",
      "type": "function"
    }
  ],
  "bytecode": "0x608060405234801561001057600080fd5b50604051602080611d7b8339810180604052602081101561003057600080fd5b8101908080519060200190929190505050600073ffffffffffffffffffffffffffffffffffffffff168173ffffffffffffffffffffffffffffffffffffffff161415151561007d57600080fd5b33600360006101000a81548173ffffffffffffffffffffffffffffffffffffffff021916908373ffffffffffffffffffffffffffffffffffffffff160217905550806000806101000a81548173ffffffffffffffffffffffffffffffffffffffff021916908373ffffffffffffffffffffffffffffffffffffffff16021790555050611c6d8061010e6000396000f3fe608060405234801561001057600080fd5b50600436106100a95760003560e01c80638bf1ad4c116100715780638bf1ad4c1461027f5780638da5cb5b1461031857806399d508c014610362578063a6f9dae114610380578063f09dafb2146103c4578063fc0c546a14610406576100a9565b806332b1c5b7146100ae5780635ca2fc53146100ff5780636f1b526d146101735780636fc559bb146101a15780637935510b14610251575b600080fd5b6100da600480360360208110156100c457600080fd5b8101908080359060200190929190505050610450565b604051808361ffff1661ffff1681526020018281526020019250505060405180910390f35b610171600480360360a081101561011557600080fd5b81019080803573ffffffffffffffffffffffffffffffffffffffff1690602001909291908035906020019092919080359060200190929190803561ffff169060200190929190803561ffff1690602001909291905050506105e6565b005b61019f6004803603602081101561018957600080fd5b8101908080359060200190929190505050610c9b565b005b6101cd600480360360208110156101b757600080fd5b8101908080359060200190929190505050611120565b604051808881526020018781526020018661ffff1661ffff1681526020018561ffff1661ffff1681526020018461ffff1661ffff1681526020018381526020018273ffffffffffffffffffffffffffffffffffffffff1673ffffffffffffffffffffffffffffffffffffffff16815260200197505050505050505060405180910390f35b61027d6004803603602081101561026757600080fd5b81019080803590602001909291905050506111ac565b005b6102c16004803603602081101561029557600080fd5b81019080803573ffffffffffffffffffffffffffffffffffffffff1690602001909291905050506114ac565b6040518080602001828103825283818151815260200191508051906020019060200280838360005b838110156103045780820151818401526020810190506102e9565b505050509050019250505060405180910390f35b610320611543565b604051808273ffffffffffffffffffffffffffffffffffffffff1673ffffffffffffffffffffffffffffffffffffffff16815260200191505060405180910390f35b61036a611569565b6040518082815260200191505060405180910390f35b6103c26004803603602081101561039657600080fd5b81019080803573ffffffffffffffffffffffffffffffffffffffff16906020019092919050505061156f565b005b6103f0600480360360208110156103da57600080fd5b8101908080359060200190929190505050611813565b6040518082815260200191505060405180910390f35b61040e611860565b604051808273ffffffffffffffffffffffffffffffffffffffff1673ffffffffffffffffffffffffffffffffffffffff16815260200191505060405180910390f35b60008060006001600085815260200190815260200160002090508060000154610477611885565b10156104905760008081915080905092509250506105e1565b60006104b082600001546104a2611885565b61188d90919063ffffffff16565b905060006104ca62015180836118d790919063ffffffff16565b90508260020160029054906101000a900461ffff1661ffff168110156104fc57806000809050945094505050506105e1565b8260020160009054906101000a900461ffff1661ffff168110151561055b5760006105388460030154856001015461188d90919063ffffffff16565b90508360020160009054906101000a900461ffff168195509550505050506105e1565b60006105868460020160049054906101000a900461ffff1661ffff168361188d90919063ffffffff16565b905060006105b78560020160009054906101000a900461ffff1661ffff1686600101546118d790919063ffffffff16565b905060006105d2828461ffff1661192190919063ffffffff16565b90508281975097505050505050505b915091565b600360009054906101000a900473ffffffffffffffffffffffffffffffffffffffff1673ffffffffffffffffffffffffffffffffffffffff163373ffffffffffffffffffffffffffffffffffffffff161415156106ab576040517f08c379a00000000000000000000000000000000000000000000000000000000081526004018080602001828103825260098152602001807f6e6f74206f776e6572000000000000000000000000000000000000000000000081525060200191505060405180910390fd5b610e428161ffff1611151515610729576040517f08c379a00000000000000000000000000000000000000000000000000000000081526004018080602001828103825260128152602001807f6d6f7265207468616e203130207965617273000000000000000000000000000081525060200191505060405180910390fd5b6123a58261ffff16111515156107a7576040517f08c379a00000000000000000000000000000000000000000000000000000000081526004018080602001828103825260128152602001807f6d6f7265207468616e203235207965617273000000000000000000000000000081525060200191505060405180910390fd5b8061ffff168261ffff1610151515610827576040517f08c379a00000000000000000000000000000000000000000000000000000000081526004018080602001828103825260108152602001807f4475726174696f6e203c20436c6966660000000000000000000000000000000081525060200191505060405180910390fd5b60006108408361ffff16856118d790919063ffffffff16565b90506000811115156108ba576040517f08c379a00000000000000000000000000000000000000000000000000000000081526004018080602001828103825260168152602001807f616d6f756e74566573746564506572446179203e20300000000000000000000081525060200191505060405180910390fd5b6000809054906101000a900473ffffffffffffffffffffffffffffffffffffffff1673ffffffffffffffffffffffffffffffffffffffff166323b872dd600360009054906101000a900473ffffffffffffffffffffffffffffffffffffffff1630876040518463ffffffff1660e01b8152600401808473ffffffffffffffffffffffffffffffffffffffff1673ffffffffffffffffffffffffffffffffffffffff1681526020018373ffffffffffffffffffffffffffffffffffffffff1673ffffffffffffffffffffffffffffffffffffffff1681526020018281526020019350505050602060405180830381600087803b1580156109b857600080fd5b505af11580156109cc573d6000803e3d6000fd5b505050506040513d60208110156109e257600080fd5b81019080805190602001909291905050501515610a67576040517f08c379a000000000000000000000000000000000000000000000000000000000815260040180806020018281038252600f8152602001807f7472616e73666572206661696c6564000000000000000000000000000000000081525060200191505060405180910390fd5b610a6f611bc1565b6040518060e0016040528060008814610a885787610a91565b610a90611885565b5b81526020018681526020018561ffff1681526020018461ffff168152602001600061ffff168152602001600081526020018873ffffffffffffffffffffffffffffffffffffffff16815250905080600160006004548152602001908152602001600020600082015181600001556020820151816001015560408201518160020160006101000a81548161ffff021916908361ffff16021790555060608201518160020160026101000a81548161ffff021916908361ffff16021790555060808201518160020160046101000a81548161ffff021916908361ffff16021790555060a0820151816003015560c08201518160040160006101000a81548173ffffffffffffffffffffffffffffffffffffffff021916908373ffffffffffffffffffffffffffffffffffffffff160217905550905050600260008873ffffffffffffffffffffffffffffffffffffffff1673ffffffffffffffffffffffffffffffffffffffff16815260200190815260200160002060045490806001815401808255809150509060018203906000526020600020016000909192909190915055508673ffffffffffffffffffffffffffffffffffffffff167f9d2a1eab91557a277ec725fe26546609d5a33a550c3f3476982ee177252be8f46004546040518082815260200191505060405180910390a260046000815480929190600101919050555050505050505050565b600360009054906101000a900473ffffffffffffffffffffffffffffffffffffffff1673ffffffffffffffffffffffffffffffffffffffff163373ffffffffffffffffffffffffffffffffffffffff16141515610d60576040517f08c379a00000000000000000000000000000000000000000000000000000000081526004018080602001828103825260098152602001807f6e6f74206f776e6572000000000000000000000000000000000000000000000081525060200191505060405180910390fd5b600060016000838152602001908152602001600020905060008160040160009054906101000a900473ffffffffffffffffffffffffffffffffffffffff169050600080610dac85610450565b80925081935050506000610de382610dd58760030154886001015461188d90919063ffffffff16565b61188d90919063ffffffff16565b90506000809054906101000a900473ffffffffffffffffffffffffffffffffffffffff1673ffffffffffffffffffffffffffffffffffffffff1663a9059cbb85846040518363ffffffff1660e01b8152600401808373ffffffffffffffffffffffffffffffffffffffff1673ffffffffffffffffffffffffffffffffffffffff16815260200182815260200192505050602060405180830381600087803b158015610e8d57600080fd5b505af1158015610ea1573d6000803e3d6000fd5b505050506040513d6020811015610eb757600080fd5b81019080805190602001909291905050501515610ed357600080fd5b6000809054906101000a900473ffffffffffffffffffffffffffffffffffffffff1673ffffffffffffffffffffffffffffffffffffffff1663a9059cbb600360009054906101000a900473ffffffffffffffffffffffffffffffffffffffff16836040518363ffffffff1660e01b8152600401808373ffffffffffffffffffffffffffffffffffffffff1673ffffffffffffffffffffffffffffffffffffffff16815260200182815260200192505050602060405180830381600087803b158015610f9d57600080fd5b505af1158015610fb1573d6000803e3d6000fd5b505050506040513d6020811015610fc757600080fd5b81019080805190602001909291905050501515610fe357600080fd5b600085600001819055506000856001018190555060008560020160006101000a81548161ffff021916908361ffff16021790555060008560020160026101000a81548161ffff021916908361ffff16021790555060008560020160046101000a81548161ffff021916908361ffff1602179055506000856003018190555060008560040160006101000a81548173ffffffffffffffffffffffffffffffffffffffff021916908373ffffffffffffffffffffffffffffffffffffffff1602179055507f8f1462bc75233ee60d368eb1925fc2a7f205e6a8ef562c9bdf9c06db8b41aa76848383604051808473ffffffffffffffffffffffffffffffffffffffff1673ffffffffffffffffffffffffffffffffffffffff168152602001838152602001828152602001935050505060405180910390a1505050505050565b60016020528060005260406000206000915090508060000154908060010154908060020160009054906101000a900461ffff16908060020160029054906101000a900461ffff16908060020160049054906101000a900461ffff16908060030154908060040160009054906101000a900473ffffffffffffffffffffffffffffffffffffffff16905087565b6000806111b883610450565b8092508193505050600081111515611238576040517f08c379a00000000000000000000000000000000000000000000000000000000081526004018080602001828103825260118152602001807f616d6f756e74566573746564206973203000000000000000000000000000000081525060200191505060405180910390fd5b600060016000858152602001908152602001600020905061127c8361ffff168260020160049054906101000a900461ffff1661ffff166119ab90919063ffffffff16565b8160020160046101000a81548161ffff021916908361ffff1602179055506112b18282600301546119ab90919063ffffffff16565b81600301819055506000809054906101000a900473ffffffffffffffffffffffffffffffffffffffff1673ffffffffffffffffffffffffffffffffffffffff1663a9059cbb8260040160009054906101000a900473ffffffffffffffffffffffffffffffffffffffff16846040518363ffffffff1660e01b8152600401808373ffffffffffffffffffffffffffffffffffffffff1673ffffffffffffffffffffffffffffffffffffffff16815260200182815260200192505050602060405180830381600087803b15801561138557600080fd5b505af1158015611399573d6000803e3d6000fd5b505050506040513d60208110156113af57600080fd5b81019080805190602001909291905050501515611434576040517f08c379a00000000000000000000000000000000000000000000000000000000081526004018080602001828103825260098152602001807f6e6f20746f6b656e73000000000000000000000000000000000000000000000081525060200191505060405180910390fd5b8060040160009054906101000a900473ffffffffffffffffffffffffffffffffffffffff1673ffffffffffffffffffffffffffffffffffffffff167fc6cbb4aa8681b18644bf64921eea8f2b9f44cbd58d64fc07a110bfccc2038296836040518082815260200191505060405180910390a250505050565b6060600260008373ffffffffffffffffffffffffffffffffffffffff1673ffffffffffffffffffffffffffffffffffffffff16815260200190815260200160002080548060200260200160405190810160405280929190818152602001828054801561153757602002820191906000526020600020905b815481526020019060010190808311611523575b50505050509050919050565b600360009054906101000a900473ffffffffffffffffffffffffffffffffffffffff1681565b60045481565b600360009054906101000a900473ffffffffffffffffffffffffffffffffffffffff1673ffffffffffffffffffffffffffffffffffffffff163373ffffffffffffffffffffffffffffffffffffffff16141515611634576040517f08c379a00000000000000000000000000000000000000000000000000000000081526004018080602001828103825260098152602001807f6e6f74206f776e6572000000000000000000000000000000000000000000000081525060200191505060405180910390fd5b80600073ffffffffffffffffffffffffffffffffffffffff168173ffffffffffffffffffffffffffffffffffffffff161415801561169e57503073ffffffffffffffffffffffffffffffffffffffff168173ffffffffffffffffffffffffffffffffffffffff1614155b80156116f757506000809054906101000a900473ffffffffffffffffffffffffffffffffffffffff1673ffffffffffffffffffffffffffffffffffffffff168173ffffffffffffffffffffffffffffffffffffffff1614155b151561176b576040517f08c379a00000000000000000000000000000000000000000000000000000000081526004018080602001828103825260148152602001807f6e6f742076616c6964205f726563697069656e7400000000000000000000000081525060200191505060405180910390fd5b81600360006101000a81548173ffffffffffffffffffffffffffffffffffffffff021916908373ffffffffffffffffffffffffffffffffffffffff1602179055507fa701229f4b9ddf00aa1c7228d248e6320ee7c581d856ddfba036e73947cd0d1382604051808273ffffffffffffffffffffffffffffffffffffffff1673ffffffffffffffffffffffffffffffffffffffff16815260200191505060405180910390a15050565b6000806001600084815260200190815260200160002090506118588160020160009054906101000a900461ffff1661ffff1682600101546118d790919063ffffffff16565b915050919050565b6000809054906101000a900473ffffffffffffffffffffffffffffffffffffffff1681565b600042905090565b60006118cf83836040518060400160405280601e81526020017f536166654d6174683a207375627472616374696f6e206f766572666c6f770000815250611a35565b905092915050565b600061191983836040518060400160405280601a81526020017f536166654d6174683a206469766973696f6e206279207a65726f000000000000815250611af7565b905092915050565b60008083141561193457600090506119a5565b6000828402905082848281151561194757fe5b041415156119a0576040517f08c379a0000000000000000000000000000000000000000000000000000000008152600401808060200182810382526021815260200180611c216021913960400191505060405180910390fd5b809150505b92915050565b6000808284019050838110151515611a2b576040517f08c379a000000000000000000000000000000000000000000000000000000000815260040180806020018281038252601b8152602001807f536166654d6174683a206164646974696f6e206f766572666c6f77000000000081525060200191505060405180910390fd5b8091505092915050565b60008383111582901515611ae4576040517f08c379a00000000000000000000000000000000000000000000000000000000081526004018080602001828103825283818151815260200191508051906020019080838360005b83811015611aa9578082015181840152602081019050611a8e565b50505050905090810190601f168015611ad65780820380516001836020036101000a031916815260200191505b509250505060405180910390fd5b5060008385039050809150509392505050565b600080831182901515611ba5576040517f08c379a00000000000000000000000000000000000000000000000000000000081526004018080602001828103825283818151815260200191508051906020019080838360005b83811015611b6a578082015181840152602081019050611b4f565b50505050905090810190601f168015611b975780820380516001836020036101000a031916815260200191505b509250505060405180910390fd5b5060008385811515611bb357fe5b049050809150509392505050565b6040518060e001604052806000815260200160008152602001600061ffff168152602001600061ffff168152602001600061ffff16815260200160008152602001600073ffffffffffffffffffffffffffffffffffffffff168152509056fe536166654d6174683a206d756c7469706c69636174696f6e206f766572666c6f77a165627a7a72305820dad32919bd6d90f4089937017d46c96d9727723e95408b7793e6bee757ce38ad0029",
  "source": "// adpted from https://gist.github.com/rstormsf/7cfb0c6b7a835c0c67b4a394b4fd9383\n\n// pragma solidity 0.4.24;\npragma solidity ^0.5.0;\n\nimport \"@openzeppelin/contracts/token/ERC20/ERC20.sol\";\nimport \"@openzeppelin/contracts/math/SafeMath.sol\";\n\ncontract VestingVault12 {\n    using SafeMath for uint256;\n    using SafeMath for uint16;\n    \n    modifier onlyOwner {\n        require(msg.sender == owner, \"not owner\");\n        _;\n    }\n\n    modifier onlyValidAddress(address _recipient) {\n        require(_recipient != address(0) && _recipient != address(this) && _recipient != address(token), \"not valid _recipient\");\n        _;\n    }\n\n    uint256 constant internal SECONDS_PER_DAY = 86400;\n\n    struct Grant {\n        uint256 startTime;\n        uint256 amount;\n        uint16 vestingDuration;\n        uint16 vestingCliff;\n        uint16 daysClaimed;\n        uint256 totalClaimed;\n        address recipient;\n    }\n\n    event GrantAdded(address indexed recipient, uint256 vestingId);\n    event GrantTokensClaimed(address indexed recipient, uint256 amountClaimed);\n    event GrantRemoved(address recipient, uint256 amountVested, uint256 amountNotVested);\n    event ChangedOwner(address owner);\n\n    ERC20 public token;\n    \n    mapping (uint256 => Grant) public tokenGrants;\n    mapping (address => uint[]) private activeGrants;\n    address public owner;\n    uint256 public totalVestingCount;\n\n    constructor(ERC20 _token) public {\n        require(address(_token) != address(0));\n        owner = msg.sender;\n        token = _token;\n    }\n    \n    function addTokenGrant(\n        address _recipient,\n        uint256 _startTime,\n        uint256 _amount,\n        uint16 _vestingDurationInDays,\n        uint16 _vestingCliffInDays    \n    ) \n        external\n        onlyOwner\n    {\n        require(_vestingCliffInDays <= 10*365, \"more than 10 years\");\n        require(_vestingDurationInDays <= 25*365, \"more than 25 years\");\n        require(_vestingDurationInDays >= _vestingCliffInDays, \"Duration < Cliff\");\n        \n        uint256 amountVestedPerDay = _amount.div(_vestingDurationInDays);\n        require(amountVestedPerDay > 0, \"amountVestedPerDay > 0\");\n\n        // Transfer the grant tokens under the control of the vesting contract\n        require(token.transferFrom(owner, address(this), _amount), \"transfer failed\");\n\n        Grant memory grant = Grant({\n            startTime: _startTime == 0 ? currentTime() : _startTime,\n            amount: _amount,\n            vestingDuration: _vestingDurationInDays,\n            vestingCliff: _vestingCliffInDays,\n            daysClaimed: 0,\n            totalClaimed: 0,\n            recipient: _recipient\n        });\n        tokenGrants[totalVestingCount] = grant;\n        activeGrants[_recipient].push(totalVestingCount);\n        emit GrantAdded(_recipient, totalVestingCount);\n        totalVestingCount++;\n    }\n\n    function getActiveGrants(address _recipient) public view returns(uint256[] memory){\n        return activeGrants[_recipient];\n    }\n\n    /// @notice Calculate the vested and unclaimed months and tokens available for `_grantId` to claim\n    /// Due to rounding errors once grant duration is reached, returns the entire left grant amount\n    /// Returns (0, 0) if cliff has not been reached\n    function calculateGrantClaim(uint256 _grantId) public view returns (uint16, uint256) {\n        Grant storage tokenGrant = tokenGrants[_grantId];\n\n        // For grants created with a future start date, that hasn't been reached, return 0, 0\n        if (currentTime() < tokenGrant.startTime) {\n            return (0, 0);\n        }\n\n        // Check cliff was reached\n        uint elapsedTime = currentTime().sub(tokenGrant.startTime);\n        uint elapsedDays = elapsedTime.div(SECONDS_PER_DAY);\n        \n        if (elapsedDays < tokenGrant.vestingCliff) {\n            return (uint16(elapsedDays), 0);\n        }\n\n        // If over vesting duration, all tokens vested\n        if (elapsedDays >= tokenGrant.vestingDuration) {\n            uint256 remainingGrant = tokenGrant.amount.sub(tokenGrant.totalClaimed);\n            return (tokenGrant.vestingDuration, remainingGrant);\n        } else {\n            uint16 daysVested = uint16(elapsedDays.sub(tokenGrant.daysClaimed));\n            uint256 amountVestedPerDay = tokenGrant.amount.div(uint256(tokenGrant.vestingDuration));\n            uint256 amountVested = uint256(daysVested.mul(amountVestedPerDay));\n            return (daysVested, amountVested);\n        }\n    }\n\n    /// @notice Allows a grant recipient to claim their vested tokens. Errors if no tokens have vested\n    /// It is advised recipients check they are entitled to claim via `calculateGrantClaim` before calling this\n    function claimVestedTokens(uint256 _grantId) external {\n        uint16 daysVested;\n        uint256 amountVested;\n        (daysVested, amountVested) = calculateGrantClaim(_grantId);\n        require(amountVested > 0, \"amountVested is 0\");\n\n        Grant storage tokenGrant = tokenGrants[_grantId];\n        tokenGrant.daysClaimed = uint16(tokenGrant.daysClaimed.add(daysVested));\n        tokenGrant.totalClaimed = uint256(tokenGrant.totalClaimed.add(amountVested));\n        \n        require(token.transfer(tokenGrant.recipient, amountVested), \"no tokens\");\n        emit GrantTokensClaimed(tokenGrant.recipient, amountVested);\n    }\n\n    /// @notice Terminate token grant transferring all vested tokens to the `_grantId`\n    /// and returning all non-vested tokens to the V12 owner\n    /// Secured to the V12 owner only\n    /// @param _grantId grantId of the token grant recipient\n    function removeTokenGrant(uint256 _grantId) \n        external \n        onlyOwner\n    {\n        Grant storage tokenGrant = tokenGrants[_grantId];\n        address recipient = tokenGrant.recipient;\n        uint16 daysVested;\n        uint256 amountVested;\n        (daysVested, amountVested) = calculateGrantClaim(_grantId);\n\n        uint256 amountNotVested = (tokenGrant.amount.sub(tokenGrant.totalClaimed)).sub(amountVested);\n\n        require(token.transfer(recipient, amountVested));\n        require(token.transfer(owner, amountNotVested));\n\n        tokenGrant.startTime = 0;\n        tokenGrant.amount = 0;\n        tokenGrant.vestingDuration = 0;\n        tokenGrant.vestingCliff = 0;\n        tokenGrant.daysClaimed = 0;\n        tokenGrant.totalClaimed = 0;\n        tokenGrant.recipient = address(0);\n\n        emit GrantRemoved(recipient, amountVested, amountNotVested);\n    }\n\n    function currentTime() private view returns(uint256) {\n        return block.timestamp;\n    }\n\n    function tokensVestedPerDay(uint256 _grantId) public view returns(uint256) {\n        Grant storage tokenGrant = tokenGrants[_grantId];\n        return tokenGrant.amount.div(uint256(tokenGrant.vestingDuration));\n    }\n\n    function changeOwner(address _newOwner) \n        external \n        onlyOwner\n        onlyValidAddress(_newOwner)\n    {\n        owner = _newOwner;\n        emit ChangedOwner(_newOwner);\n    }\n\n}\n",
  "sourcePath": "/Users/simon/Documents/Code/the-standard/truffle/vesting/contracts/VestingVault12.sol",
  "compiler": {
    "name": "solc",
    "version": "0.5.5+commit.47a71e8f.Emscripten.clang"
  },
  "schemaVersion": "3.4.1",
  "updatedAt": "2021-06-22T15:50:24.036Z",
  "devdoc": {
    "methods": {
      "removeTokenGrant(uint256)": {
        "params": {
          "_grantId": "grantId of the token grant recipient"
        }
      }
    }
  },
  "userdoc": {
    "methods": {
      "calculateGrantClaim(uint256)": {
        "notice": "Calculate the vested and unclaimed months and tokens available for `_grantId` to claim Due to rounding errors once grant duration is reached, returns the entire left grant amount Returns (0, 0) if cliff has not been reached"
      },
      "claimVestedTokens(uint256)": {
        "notice": "Allows a grant recipient to claim their vested tokens. Errors if no tokens have vested It is advised recipients check they are entitled to claim via `calculateGrantClaim` before calling this"
      },
      "removeTokenGrant(uint256)": {
        "notice": "Terminate token grant transferring all vested tokens to the `_grantId` and returning all non-vested tokens to the V12 owner Secured to the V12 owner only"
      }
    }
  }
}