{
  "contractName": "VestingVault12",
  "abi": [
    {
      "constant": true,
      "inputs": [
        {
          "name": "",
          "type": "uint256"
        }
      ],
      "name": "tokenGrants",
      "outputs": [
        {
          "name": "startTime",
          "type": "uint256"
        },
        {
          "name": "amount",
          "type": "uint256"
        },
        {
          "name": "vestingDuration",
          "type": "uint16"
        },
        {
          "name": "vestingCliff",
          "type": "uint16"
        },
        {
          "name": "daysClaimed",
          "type": "uint16"
        },
        {
          "name": "totalClaimed",
          "type": "uint256"
        },
        {
          "name": "recipient",
          "type": "address"
        }
      ],
      "payable": false,
      "stateMutability": "view",
      "type": "function"
    },
    {
      "constant": true,
      "inputs": [],
      "name": "totalVestingCount",
      "outputs": [
        {
          "name": "",
          "type": "uint256"
        }
      ],
      "payable": false,
      "stateMutability": "view",
      "type": "function"
    },
    {
      "constant": true,
      "inputs": [],
      "name": "v12MultiSig",
      "outputs": [
        {
          "name": "",
          "type": "address"
        }
      ],
      "payable": false,
      "stateMutability": "view",
      "type": "function"
    },
    {
      "constant": true,
      "inputs": [],
      "name": "token",
      "outputs": [
        {
          "name": "",
          "type": "address"
        }
      ],
      "payable": false,
      "stateMutability": "view",
      "type": "function"
    },
    {
      "inputs": [
        {
          "name": "_token",
          "type": "address"
        }
      ],
      "payable": false,
      "stateMutability": "nonpayable",
      "type": "constructor"
    },
    {
      "anonymous": false,
      "inputs": [
        {
          "indexed": true,
          "name": "recipient",
          "type": "address"
        },
        {
          "indexed": false,
          "name": "vestingId",
          "type": "uint256"
        }
      ],
      "name": "GrantAdded",
      "type": "event"
    },
    {
      "anonymous": false,
      "inputs": [
        {
          "indexed": true,
          "name": "recipient",
          "type": "address"
        },
        {
          "indexed": false,
          "name": "amountClaimed",
          "type": "uint256"
        }
      ],
      "name": "GrantTokensClaimed",
      "type": "event"
    },
    {
      "anonymous": false,
      "inputs": [
        {
          "indexed": false,
          "name": "recipient",
          "type": "address"
        },
        {
          "indexed": false,
          "name": "amountVested",
          "type": "uint256"
        },
        {
          "indexed": false,
          "name": "amountNotVested",
          "type": "uint256"
        }
      ],
      "name": "GrantRemoved",
      "type": "event"
    },
    {
      "anonymous": false,
      "inputs": [
        {
          "indexed": false,
          "name": "multisig",
          "type": "address"
        }
      ],
      "name": "ChangedMultisig",
      "type": "event"
    },
    {
      "constant": false,
      "inputs": [
        {
          "name": "_recipient",
          "type": "address"
        },
        {
          "name": "_startTime",
          "type": "uint256"
        },
        {
          "name": "_amount",
          "type": "uint256"
        },
        {
          "name": "_vestingDurationInDays",
          "type": "uint16"
        },
        {
          "name": "_vestingCliffInDays",
          "type": "uint16"
        }
      ],
      "name": "addTokenGrant",
      "outputs": [],
      "payable": false,
      "stateMutability": "nonpayable",
      "type": "function"
    },
    {
      "constant": true,
      "inputs": [
        {
          "name": "_recipient",
          "type": "address"
        }
      ],
      "name": "getActiveGrants",
      "outputs": [
        {
          "name": "",
          "type": "uint256[]"
        }
      ],
      "payable": false,
      "stateMutability": "view",
      "type": "function"
    },
    {
      "constant": true,
      "inputs": [
        {
          "name": "_grantId",
          "type": "uint256"
        }
      ],
      "name": "calculateGrantClaim",
      "outputs": [
        {
          "name": "",
          "type": "uint16"
        },
        {
          "name": "",
          "type": "uint256"
        }
      ],
      "payable": false,
      "stateMutability": "view",
      "type": "function"
    },
    {
      "constant": false,
      "inputs": [
        {
          "name": "_grantId",
          "type": "uint256"
        }
      ],
      "name": "claimVestedTokens",
      "outputs": [],
      "payable": false,
      "stateMutability": "nonpayable",
      "type": "function"
    },
    {
      "constant": false,
      "inputs": [
        {
          "name": "_grantId",
          "type": "uint256"
        }
      ],
      "name": "removeTokenGrant",
      "outputs": [],
      "payable": false,
      "stateMutability": "nonpayable",
      "type": "function"
    },
    {
      "constant": true,
      "inputs": [
        {
          "name": "_grantId",
          "type": "uint256"
        }
      ],
      "name": "tokensVestedPerDay",
      "outputs": [
        {
          "name": "",
          "type": "uint256"
        }
      ],
      "payable": false,
      "stateMutability": "view",
      "type": "function"
    },
    {
      "constant": false,
      "inputs": [
        {
          "name": "_newMultisig",
          "type": "address"
        }
      ],
      "name": "changeMultiSig",
      "outputs": [],
      "payable": false,
      "stateMutability": "nonpayable",
      "type": "function"
    }
  ],
  "bytecode": "0x608060405234801561001057600080fd5b50604051602080611b4e83398101806040528101908080519060200190929190505050600073ffffffffffffffffffffffffffffffffffffffff168173ffffffffffffffffffffffffffffffffffffffff161415151561006f57600080fd5b33600360006101000a81548173ffffffffffffffffffffffffffffffffffffffff021916908373ffffffffffffffffffffffffffffffffffffffff160217905550806000806101000a81548173ffffffffffffffffffffffffffffffffffffffff021916908373ffffffffffffffffffffffffffffffffffffffff16021790555050611a4e806101006000396000f3006080604052600436106100af576000357c0100000000000000000000000000000000000000000000000000000000900463ffffffff1680632902a0ca146100b457806332b1c5b7146100f75780635ca2fc53146101475780636f1b526d146101ba5780636fc559bb146101e75780637935510b146102965780638bf1ad4c146102c357806399d508c01461035b578063d531ebc014610386578063f09dafb2146103dd578063fc0c546a1461041e575b600080fd5b3480156100c057600080fd5b506100f5600480360381019080803573ffffffffffffffffffffffffffffffffffffffff169060200190929190505050610475565b005b34801561010357600080fd5b5061012260048036038101908080359060200190929190505050610719565b604051808361ffff1661ffff1681526020018281526020019250505060405180910390f35b34801561015357600080fd5b506101b8600480360381019080803573ffffffffffffffffffffffffffffffffffffffff1690602001909291908035906020019092919080359060200190929190803561ffff169060200190929190803561ffff1690602001909291905050506108a5565b005b3480156101c657600080fd5b506101e560048036038101908080359060200190929190505050610f77565b005b3480156101f357600080fd5b5061021260048036038101908080359060200190929190505050611433565b604051808881526020018781526020018661ffff1661ffff1681526020018561ffff1661ffff1681526020018461ffff1661ffff1681526020018381526020018273ffffffffffffffffffffffffffffffffffffffff1673ffffffffffffffffffffffffffffffffffffffff16815260200197505050505050505060405180910390f35b3480156102a257600080fd5b506102c1600480360381019080803590602001909291905050506114bf565b005b3480156102cf57600080fd5b50610304600480360381019080803573ffffffffffffffffffffffffffffffffffffffff1690602001909291905050506117db565b6040518080602001828103825283818151815260200191508051906020019060200280838360005b8381101561034757808201518184015260208101905061032c565b505050509050019250505060405180910390f35b34801561036757600080fd5b50610370611872565b6040518082815260200191505060405180910390f35b34801561039257600080fd5b5061039b611878565b604051808273ffffffffffffffffffffffffffffffffffffffff1673ffffffffffffffffffffffffffffffffffffffff16815260200191505060405180910390f35b3480156103e957600080fd5b506104086004803603810190808035906020019092919050505061189e565b6040518082815260200191505060405180910390f35b34801561042a57600080fd5b506104336118eb565b604051808273ffffffffffffffffffffffffffffffffffffffff1673ffffffffffffffffffffffffffffffffffffffff16815260200191505060405180910390f35b600360009054906101000a900473ffffffffffffffffffffffffffffffffffffffff1673ffffffffffffffffffffffffffffffffffffffff163373ffffffffffffffffffffffffffffffffffffffff1614151561053a576040517f08c379a00000000000000000000000000000000000000000000000000000000081526004018080602001828103825260098152602001807f6e6f74206f776e6572000000000000000000000000000000000000000000000081525060200191505060405180910390fd5b80600073ffffffffffffffffffffffffffffffffffffffff168173ffffffffffffffffffffffffffffffffffffffff16141580156105a457503073ffffffffffffffffffffffffffffffffffffffff168173ffffffffffffffffffffffffffffffffffffffff1614155b80156105fd57506000809054906101000a900473ffffffffffffffffffffffffffffffffffffffff1673ffffffffffffffffffffffffffffffffffffffff168173ffffffffffffffffffffffffffffffffffffffff1614155b1515610671576040517f08c379a00000000000000000000000000000000000000000000000000000000081526004018080602001828103825260148152602001807f6e6f742076616c6964205f726563697069656e7400000000000000000000000081525060200191505060405180910390fd5b81600360006101000a81548173ffffffffffffffffffffffffffffffffffffffff021916908373ffffffffffffffffffffffffffffffffffffffff1602179055507f1095c9869752f7f59b0736661c1ccc9e0314e35c10af8ee5482f57836852f20782604051808273ffffffffffffffffffffffffffffffffffffffff1673ffffffffffffffffffffffffffffffffffffffff16815260200191505060405180910390a15050565b6000806000806000806000806000600160008b815260200190815260200160002096508660000154610749611910565b10156107615760008081915080905098509850610899565b61077f8760000154610771611910565b61191890919063ffffffff16565b9550610797620151808761193990919063ffffffff16565b94508660020160029054906101000a900461ffff1661ffff168510156107c65784600080905098509850610899565b8660020160009054906101000a900461ffff1661ffff168510151561081f576108008760030154886001015461191890919063ffffffff16565b93508660020160009054906101000a900461ffff168498509850610899565b6108488760020160049054906101000a900461ffff1661ffff168661191890919063ffffffff16565b92506108778760020160009054906101000a900461ffff1661ffff16886001015461193990919063ffffffff16565b9150610890828461ffff1661196390919063ffffffff16565b90508281985098505b50505050505050915091565b60006108af6119c2565b600360009054906101000a900473ffffffffffffffffffffffffffffffffffffffff1673ffffffffffffffffffffffffffffffffffffffff163373ffffffffffffffffffffffffffffffffffffffff16141515610974576040517f08c379a00000000000000000000000000000000000000000000000000000000081526004018080602001828103825260098152602001807f6e6f74206f776e6572000000000000000000000000000000000000000000000081525060200191505060405180910390fd5b610e428361ffff16111515156109f2576040517f08c379a00000000000000000000000000000000000000000000000000000000081526004018080602001828103825260128152602001807f6d6f7265207468616e203130207965617273000000000000000000000000000081525060200191505060405180910390fd5b6123a58461ffff1611151515610a70576040517f08c379a00000000000000000000000000000000000000000000000000000000081526004018080602001828103825260128152602001807f6d6f7265207468616e203235207965617273000000000000000000000000000081525060200191505060405180910390fd5b8261ffff168461ffff1610151515610af0576040517f08c379a00000000000000000000000000000000000000000000000000000000081526004018080602001828103825260108152602001807f4475726174696f6e203c20436c6966660000000000000000000000000000000081525060200191505060405180910390fd5b610b078461ffff168661193990919063ffffffff16565b9150600082111515610b81576040517f08c379a00000000000000000000000000000000000000000000000000000000081526004018080602001828103825260168152602001807f616d6f756e74566573746564506572446179203e20300000000000000000000081525060200191505060405180910390fd5b6000809054906101000a900473ffffffffffffffffffffffffffffffffffffffff1673ffffffffffffffffffffffffffffffffffffffff166323b872dd600360009054906101000a900473ffffffffffffffffffffffffffffffffffffffff1630886040518463ffffffff167c0100000000000000000000000000000000000000000000000000000000028152600401808473ffffffffffffffffffffffffffffffffffffffff1673ffffffffffffffffffffffffffffffffffffffff1681526020018373ffffffffffffffffffffffffffffffffffffffff1673ffffffffffffffffffffffffffffffffffffffff1681526020018281526020019350505050602060405180830381600087803b158015610c9b57600080fd5b505af1158015610caf573d6000803e3d6000fd5b505050506040513d6020811015610cc557600080fd5b81019080805190602001909291905050501515610d4a576040517f08c379a000000000000000000000000000000000000000000000000000000000815260040180806020018281038252600f8152602001807f7472616e73666572206661696c6564000000000000000000000000000000000081525060200191505060405180910390fd5b60e06040519081016040528060008814610d645787610d6d565b610d6c611910565b5b81526020018681526020018561ffff1681526020018461ffff168152602001600061ffff168152602001600081526020018873ffffffffffffffffffffffffffffffffffffffff16815250905080600160006004548152602001908152602001600020600082015181600001556020820151816001015560408201518160020160006101000a81548161ffff021916908361ffff16021790555060608201518160020160026101000a81548161ffff021916908361ffff16021790555060808201518160020160046101000a81548161ffff021916908361ffff16021790555060a0820151816003015560c08201518160040160006101000a81548173ffffffffffffffffffffffffffffffffffffffff021916908373ffffffffffffffffffffffffffffffffffffffff160217905550905050600260008873ffffffffffffffffffffffffffffffffffffffff1673ffffffffffffffffffffffffffffffffffffffff16815260200190815260200160002060045490806001815401808255809150509060018203906000526020600020016000909192909190915055508673ffffffffffffffffffffffffffffffffffffffff167f9d2a1eab91557a277ec725fe26546609d5a33a550c3f3476982ee177252be8f46004546040518082815260200191505060405180910390a260046000815480929190600101919050555050505050505050565b6000806000806000600360009054906101000a900473ffffffffffffffffffffffffffffffffffffffff1673ffffffffffffffffffffffffffffffffffffffff163373ffffffffffffffffffffffffffffffffffffffff16141515611044576040517f08c379a00000000000000000000000000000000000000000000000000000000081526004018080602001828103825260098152602001807f6e6f74206f776e6572000000000000000000000000000000000000000000000081525060200191505060405180910390fd5b6001600087815260200190815260200160002094508460040160009054906101000a900473ffffffffffffffffffffffffffffffffffffffff16935061108986610719565b80935081945050506110be826110b08760030154886001015461191890919063ffffffff16565b61191890919063ffffffff16565b90506000809054906101000a900473ffffffffffffffffffffffffffffffffffffffff1673ffffffffffffffffffffffffffffffffffffffff1663a9059cbb85846040518363ffffffff167c0100000000000000000000000000000000000000000000000000000000028152600401808373ffffffffffffffffffffffffffffffffffffffff1673ffffffffffffffffffffffffffffffffffffffff16815260200182815260200192505050602060405180830381600087803b15801561118457600080fd5b505af1158015611198573d6000803e3d6000fd5b505050506040513d60208110156111ae57600080fd5b810190808051906020019092919050505015156111ca57600080fd5b6000809054906101000a900473ffffffffffffffffffffffffffffffffffffffff1673ffffffffffffffffffffffffffffffffffffffff1663a9059cbb600360009054906101000a900473ffffffffffffffffffffffffffffffffffffffff16836040518363ffffffff167c0100000000000000000000000000000000000000000000000000000000028152600401808373ffffffffffffffffffffffffffffffffffffffff1673ffffffffffffffffffffffffffffffffffffffff16815260200182815260200192505050602060405180830381600087803b1580156112b057600080fd5b505af11580156112c4573d6000803e3d6000fd5b505050506040513d60208110156112da57600080fd5b810190808051906020019092919050505015156112f657600080fd5b600085600001819055506000856001018190555060008560020160006101000a81548161ffff021916908361ffff16021790555060008560020160026101000a81548161ffff021916908361ffff16021790555060008560020160046101000a81548161ffff021916908361ffff1602179055506000856003018190555060008560040160006101000a81548173ffffffffffffffffffffffffffffffffffffffff021916908373ffffffffffffffffffffffffffffffffffffffff1602179055507f8f1462bc75233ee60d368eb1925fc2a7f205e6a8ef562c9bdf9c06db8b41aa76848383604051808473ffffffffffffffffffffffffffffffffffffffff1673ffffffffffffffffffffffffffffffffffffffff168152602001838152602001828152602001935050505060405180910390a1505050505050565b60016020528060005260406000206000915090508060000154908060010154908060020160009054906101000a900461ffff16908060020160029054906101000a900461ffff16908060020160049054906101000a900461ffff16908060030154908060040160009054906101000a900473ffffffffffffffffffffffffffffffffffffffff16905087565b60008060006114cd84610719565b809350819450505060008211151561154d576040517f08c379a00000000000000000000000000000000000000000000000000000000081526004018080602001828103825260118152602001807f616d6f756e74566573746564206973203000000000000000000000000000000081525060200191505060405180910390fd5b60016000858152602001908152602001600020905061158f8361ffff168260020160049054906101000a900461ffff1661ffff166119a190919063ffffffff16565b8160020160046101000a81548161ffff021916908361ffff1602179055506115c48282600301546119a190919063ffffffff16565b81600301819055506000809054906101000a900473ffffffffffffffffffffffffffffffffffffffff1673ffffffffffffffffffffffffffffffffffffffff1663a9059cbb8260040160009054906101000a900473ffffffffffffffffffffffffffffffffffffffff16846040518363ffffffff167c0100000000000000000000000000000000000000000000000000000000028152600401808373ffffffffffffffffffffffffffffffffffffffff1673ffffffffffffffffffffffffffffffffffffffff16815260200182815260200192505050602060405180830381600087803b1580156116b457600080fd5b505af11580156116c8573d6000803e3d6000fd5b505050506040513d60208110156116de57600080fd5b81019080805190602001909291905050501515611763576040517f08c379a00000000000000000000000000000000000000000000000000000000081526004018080602001828103825260098152602001807f6e6f20746f6b656e73000000000000000000000000000000000000000000000081525060200191505060405180910390fd5b8060040160009054906101000a900473ffffffffffffffffffffffffffffffffffffffff1673ffffffffffffffffffffffffffffffffffffffff167fc6cbb4aa8681b18644bf64921eea8f2b9f44cbd58d64fc07a110bfccc2038296836040518082815260200191505060405180910390a250505050565b6060600260008373ffffffffffffffffffffffffffffffffffffffff1673ffffffffffffffffffffffffffffffffffffffff16815260200190815260200160002080548060200260200160405190810160405280929190818152602001828054801561186657602002820191906000526020600020905b815481526020019060010190808311611852575b50505050509050919050565b60045481565b600360009054906101000a900473ffffffffffffffffffffffffffffffffffffffff1681565b6000806001600084815260200190815260200160002090506118e38160020160009054906101000a900461ffff1661ffff16826001015461193990919063ffffffff16565b915050919050565b6000809054906101000a900473ffffffffffffffffffffffffffffffffffffffff1681565b600042905090565b60008083831115151561192a57600080fd5b82840390508091505092915050565b60008060008311151561194b57600080fd5b828481151561195657fe5b0490508091505092915050565b6000806000841415611978576000915061199a565b828402905082848281151561198957fe5b0414151561199657600080fd5b8091505b5092915050565b60008082840190508381101515156119b857600080fd5b8091505092915050565b60e0604051908101604052806000815260200160008152602001600061ffff168152602001600061ffff168152602001600061ffff16815260200160008152602001600073ffffffffffffffffffffffffffffffffffffffff16815250905600a165627a7a7230582076a3b67642d3af04f15d9ee3ad872abff6f37e9058750c221e89cecc56e688bc0029",
  "source": "pragma solidity 0.4.24;\n\nimport \"openzeppelin-solidity/contracts/token/ERC20/ERC20.sol\";\nimport \"openzeppelin-solidity/contracts/math/SafeMath.sol\";\n\ncontract VestingVault12 {\n    using SafeMath for uint256;\n    using SafeMath for uint16;\n    \n    modifier onlyV12MultiSig {\n        require(msg.sender == v12MultiSig, \"not owner\");\n        _;\n    }\n\n    modifier onlyValidAddress(address _recipient) {\n        require(_recipient != address(0) && _recipient != address(this) && _recipient != address(token), \"not valid _recipient\");\n        _;\n    }\n\n    uint256 constant internal SECONDS_PER_DAY = 86400;\n\n    struct Grant {\n        uint256 startTime;\n        uint256 amount;\n        uint16 vestingDuration;\n        uint16 vestingCliff;\n        uint16 daysClaimed;\n        uint256 totalClaimed;\n        address recipient;\n    }\n\n    event GrantAdded(address indexed recipient, uint256 vestingId);\n    event GrantTokensClaimed(address indexed recipient, uint256 amountClaimed);\n    event GrantRemoved(address recipient, uint256 amountVested, uint256 amountNotVested);\n    event ChangedMultisig(address multisig);\n\n    ERC20 public token;\n    \n    mapping (uint256 => Grant) public tokenGrants;\n    mapping (address => uint[]) private activeGrants;\n    address public v12MultiSig;\n    uint256 public totalVestingCount;\n\n    constructor(ERC20 _token) public {\n        require(address(_token) != address(0));\n        v12MultiSig = msg.sender;\n        token = _token;\n    }\n    \n    function addTokenGrant(\n        address _recipient,\n        uint256 _startTime,\n        uint256 _amount,\n        uint16 _vestingDurationInDays,\n        uint16 _vestingCliffInDays    \n    ) \n        external\n        onlyV12MultiSig\n    {\n        require(_vestingCliffInDays <= 10*365, \"more than 10 years\");\n        require(_vestingDurationInDays <= 25*365, \"more than 25 years\");\n        require(_vestingDurationInDays >= _vestingCliffInDays, \"Duration < Cliff\");\n        \n        uint256 amountVestedPerDay = _amount.div(_vestingDurationInDays);\n        require(amountVestedPerDay > 0, \"amountVestedPerDay > 0\");\n\n        // Transfer the grant tokens under the control of the vesting contract\n        require(token.transferFrom(v12MultiSig, address(this), _amount), \"transfer failed\");\n\n        Grant memory grant = Grant({\n            startTime: _startTime == 0 ? currentTime() : _startTime,\n            amount: _amount,\n            vestingDuration: _vestingDurationInDays,\n            vestingCliff: _vestingCliffInDays,\n            daysClaimed: 0,\n            totalClaimed: 0,\n            recipient: _recipient\n        });\n        tokenGrants[totalVestingCount] = grant;\n        activeGrants[_recipient].push(totalVestingCount);\n        emit GrantAdded(_recipient, totalVestingCount);\n        totalVestingCount++;\n    }\n\n    function getActiveGrants(address _recipient) public view returns(uint256[]){\n        return activeGrants[_recipient];\n    }\n\n    /// @notice Calculate the vested and unclaimed months and tokens available for `_grantId` to claim\n    /// Due to rounding errors once grant duration is reached, returns the entire left grant amount\n    /// Returns (0, 0) if cliff has not been reached\n    function calculateGrantClaim(uint256 _grantId) public view returns (uint16, uint256) {\n        Grant storage tokenGrant = tokenGrants[_grantId];\n\n        // For grants created with a future start date, that hasn't been reached, return 0, 0\n        if (currentTime() < tokenGrant.startTime) {\n            return (0, 0);\n        }\n\n        // Check cliff was reached\n        uint elapsedTime = currentTime().sub(tokenGrant.startTime);\n        uint elapsedDays = elapsedTime.div(SECONDS_PER_DAY);\n        \n        if (elapsedDays < tokenGrant.vestingCliff) {\n            return (uint16(elapsedDays), 0);\n        }\n\n        // If over vesting duration, all tokens vested\n        if (elapsedDays >= tokenGrant.vestingDuration) {\n            uint256 remainingGrant = tokenGrant.amount.sub(tokenGrant.totalClaimed);\n            return (tokenGrant.vestingDuration, remainingGrant);\n        } else {\n            uint16 daysVested = uint16(elapsedDays.sub(tokenGrant.daysClaimed));\n            uint256 amountVestedPerDay = tokenGrant.amount.div(uint256(tokenGrant.vestingDuration));\n            uint256 amountVested = uint256(daysVested.mul(amountVestedPerDay));\n            return (daysVested, amountVested);\n        }\n    }\n\n    /// @notice Allows a grant recipient to claim their vested tokens. Errors if no tokens have vested\n    /// It is advised recipients check they are entitled to claim via `calculateGrantClaim` before calling this\n    function claimVestedTokens(uint256 _grantId) external {\n        uint16 daysVested;\n        uint256 amountVested;\n        (daysVested, amountVested) = calculateGrantClaim(_grantId);\n        require(amountVested > 0, \"amountVested is 0\");\n\n        Grant storage tokenGrant = tokenGrants[_grantId];\n        tokenGrant.daysClaimed = uint16(tokenGrant.daysClaimed.add(daysVested));\n        tokenGrant.totalClaimed = uint256(tokenGrant.totalClaimed.add(amountVested));\n        \n        require(token.transfer(tokenGrant.recipient, amountVested), \"no tokens\");\n        emit GrantTokensClaimed(tokenGrant.recipient, amountVested);\n    }\n\n    /// @notice Terminate token grant transferring all vested tokens to the `_grantId`\n    /// and returning all non-vested tokens to the V12 MultiSig\n    /// Secured to the V12 MultiSig only\n    /// @param _grantId grantId of the token grant recipient\n    function removeTokenGrant(uint256 _grantId) \n        external \n        onlyV12MultiSig\n    {\n        Grant storage tokenGrant = tokenGrants[_grantId];\n        address recipient = tokenGrant.recipient;\n        uint16 daysVested;\n        uint256 amountVested;\n        (daysVested, amountVested) = calculateGrantClaim(_grantId);\n\n        uint256 amountNotVested = (tokenGrant.amount.sub(tokenGrant.totalClaimed)).sub(amountVested);\n\n        require(token.transfer(recipient, amountVested));\n        require(token.transfer(v12MultiSig, amountNotVested));\n\n        tokenGrant.startTime = 0;\n        tokenGrant.amount = 0;\n        tokenGrant.vestingDuration = 0;\n        tokenGrant.vestingCliff = 0;\n        tokenGrant.daysClaimed = 0;\n        tokenGrant.totalClaimed = 0;\n        tokenGrant.recipient = address(0);\n\n        emit GrantRemoved(recipient, amountVested, amountNotVested);\n    }\n\n    function currentTime() private view returns(uint256) {\n        return block.timestamp;\n    }\n\n    function tokensVestedPerDay(uint256 _grantId) public view returns(uint256) {\n        Grant storage tokenGrant = tokenGrants[_grantId];\n        return tokenGrant.amount.div(uint256(tokenGrant.vestingDuration));\n    }\n\n    function changeMultiSig(address _newMultisig) \n        external \n        onlyV12MultiSig\n        onlyValidAddress(_newMultisig)\n    {\n        v12MultiSig = _newMultisig;\n        emit ChangedMultisig(_newMultisig);\n    }\n\n}\n",
  "sourcePath": "/Users/simon/Documents/Code/the-standard/truffle/vesting/contracts/VestingVault12.sol",
  "compiler": {
    "name": "solc",
    "version": "0.4.24+commit.e67f0147.Emscripten.clang"
  },
  "schemaVersion": "3.4.1",
  "updatedAt": "2021-06-21T21:38:49.167Z",
  "networkType": "ethereum",
  "devdoc": {
    "methods": {
      "removeTokenGrant(uint256)": {
        "params": {
          "_grantId": "grantId of the token grant recipient"
        }
      }
    }
  },
  "userdoc": {
    "methods": {
      "calculateGrantClaim(uint256)": {
        "notice": "Calculate the vested and unclaimed months and tokens available for `_grantId` to claim Due to rounding errors once grant duration is reached, returns the entire left grant amount Returns (0, 0) if cliff has not been reached"
      },
      "claimVestedTokens(uint256)": {
        "notice": "Allows a grant recipient to claim their vested tokens. Errors if no tokens have vested It is advised recipients check they are entitled to claim via `calculateGrantClaim` before calling this"
      },
      "removeTokenGrant(uint256)": {
        "notice": "Terminate token grant transferring all vested tokens to the `_grantId` and returning all non-vested tokens to the V12 MultiSig Secured to the V12 MultiSig only"
      }
    }
  }
}